{
  "contractName": "Rollups",
  "abi": [
    {
      "constant": true,
      "inputs": [
        {
          "name": "",
          "type": "uint256"
        }
      ],
      "name": "committee",
      "outputs": [
        {
          "name": "",
          "type": "address"
        }
      ],
      "payable": false,
      "stateMutability": "view",
      "type": "function"
    },
    {
      "inputs": [
        {
          "name": "c",
          "type": "address[]"
        }
      ],
      "payable": false,
      "stateMutability": "nonpayable",
      "type": "constructor"
    },
    {
      "anonymous": false,
      "inputs": [
        {
          "indexed": false,
          "name": "owner",
          "type": "address"
        },
        {
          "indexed": false,
          "name": "balance",
          "type": "int64"
        }
      ],
      "name": "BalanceChanged",
      "type": "event"
    },
    {
      "anonymous": false,
      "inputs": [
        {
          "indexed": false,
          "name": "tranIndex",
          "type": "uint256"
        }
      ],
      "name": "Transaction",
      "type": "event"
    },
    {
      "anonymous": false,
      "inputs": [
        {
          "indexed": false,
          "name": "blockCount",
          "type": "uint256"
        }
      ],
      "name": "Received",
      "type": "event"
    },
    {
      "anonymous": false,
      "inputs": [
        {
          "indexed": false,
          "name": "eight",
          "type": "int32"
        }
      ],
      "name": "TopHeightUpdate",
      "type": "event"
    },
    {
      "constant": true,
      "inputs": [],
      "name": "getTopHeight",
      "outputs": [
        {
          "name": "",
          "type": "int32"
        }
      ],
      "payable": false,
      "stateMutability": "view",
      "type": "function"
    },
    {
      "constant": false,
      "inputs": [
        {
          "name": "header",
          "type": "bytes"
        },
        {
          "name": "rollup",
          "type": "bytes"
        }
      ],
      "name": "addBlock",
      "outputs": [],
      "payable": false,
      "stateMutability": "nonpayable",
      "type": "function"
    },
    {
      "constant": false,
      "inputs": [
        {
          "name": "owner",
          "type": "address"
        }
      ],
      "name": "getBalance",
      "outputs": [
        {
          "name": "",
          "type": "int64"
        }
      ],
      "payable": false,
      "stateMutability": "nonpayable",
      "type": "function"
    },
    {
      "constant": true,
      "inputs": [
        {
          "name": "_b",
          "type": "bytes"
        }
      ],
      "name": "tb20",
      "outputs": [
        {
          "name": "_result",
          "type": "bytes20"
        }
      ],
      "payable": false,
      "stateMutability": "pure",
      "type": "function"
    },
    {
      "constant": false,
      "inputs": [
        {
          "name": "_b",
          "type": "bytes"
        }
      ],
      "name": "bytesToAddress",
      "outputs": [
        {
          "name": "",
          "type": "address"
        }
      ],
      "payable": false,
      "stateMutability": "nonpayable",
      "type": "function"
    }
  ],
  "bytecode": "0x60806040523480156200001157600080fd5b5060405162002007380380620020078339810180604052810190808051820192919050505080600290805190602001906200004e92919062000056565b50506200012b565b828054828255906000526020600020908101928215620000d2579160200282015b82811115620000d15782518260006101000a81548173ffffffffffffffffffffffffffffffffffffffff021916908373ffffffffffffffffffffffffffffffffffffffff1602179055509160200191906001019062000077565b5b509050620000e19190620000e5565b5090565b6200012891905b808211156200012457600081816101000a81549073ffffffffffffffffffffffffffffffffffffffff021916905550600101620000ec565b5090565b90565b611ecc806200013b6000396000f300608060405260043610610078576000357c0100000000000000000000000000000000000000000000000000000000900463ffffffff168063221068ae1461007d57806342526e4e146100ae578063afe7fcf414610157578063b43dd9c8146101c4578063f358de121461025f578063f8b2cb4f1461030e575b600080fd5b34801561008957600080fd5b5061009261036b565b604051808260030b60030b815260200191505060405180910390f35b3480156100ba57600080fd5b50610115600480360381019080803590602001908201803590602001908080601f016020809104026020016040519081016040528093929190818152602001838380828437820191505050505050919291929050505061048f565b604051808273ffffffffffffffffffffffffffffffffffffffff1673ffffffffffffffffffffffffffffffffffffffff16815260200191505060405180910390f35b34801561016357600080fd5b50610182600480360381019080803590602001909291905050506104b1565b604051808273ffffffffffffffffffffffffffffffffffffffff1673ffffffffffffffffffffffffffffffffffffffff16815260200191505060405180910390f35b3480156101d057600080fd5b5061022b600480360381019080803590602001908201803590602001908080601f01602080910402602001604051908101604052809392919081815260200183838082843782019150505050505091929192905050506104ef565b60405180826bffffffffffffffffffffffff19166bffffffffffffffffffffffff1916815260200191505060405180910390f35b34801561026b57600080fd5b5061030c600480360381019080803590602001908201803590602001908080601f0160208091040260200160405190810160405280939291908181526020018383808284378201915050505050509192919290803590602001908201803590602001908080601f01602080910402602001604051908101604052809392919081815260200183838082843782019150505050505091929192905050506104fd565b005b34801561031a57600080fd5b5061034f600480360381019080803573ffffffffffffffffffffffffffffffffffffffff16906020019092919050505061074a565b604051808260070b60070b815260200191505060405180910390f35b6000806000809150600090505b600280549050811015610404573373ffffffffffffffffffffffffffffffffffffffff166002828154811015156103ab57fe5b9060005260206000200160009054906101000a900473ffffffffffffffffffffffffffffffffffffffff1673ffffffffffffffffffffffffffffffffffffffff1614156103f757600191505b8080600101915050610378565b811515610479576040517f08c379a00000000000000000000000000000000000000000000000000000000081526004018080602001828103825260168152602001807f53656e646572206e6f7420617574686f72697a65642e0000000000000000000081525060200191505060405180910390fd5b6000809054906101000a900460030b9250505090565b600061049a826104ef565b6c0100000000000000000000000090049050919050565b6002818154811015156104c057fe5b906000526020600020016000915054906101000a900473ffffffffffffffffffffffffffffffffffffffff1681565b600060208201519050919050565b610505611d7a565b61050d611dc6565b6000610517611de0565b60008060009150600090505b6002805490508110156105af573373ffffffffffffffffffffffffffffffffffffffff1660028281548110151561055657fe5b9060005260206000200160009054906101000a900473ffffffffffffffffffffffffffffffffffffffff1673ffffffffffffffffffffffffffffffffffffffff1614156105a257600191505b8080600101915050610523565b811515610624576040517f08c379a00000000000000000000000000000000000000000000000000000000081526004018080602001828103825260168152602001807f53656e646572206e6f7420617574686f72697a65642e0000000000000000000081525060200191505060405180910390fd5b61062d886107a0565b9550610638876107c9565b94507fa55a668cee7266e37bcda46dd9cc53ecf7f5cfffd94fdcce5272ce40c6e9b37f8560200151600081518110151561066e57fe5b9060200190602002015160400151604051808260030b60030b815260200191505060405180910390a1600093505b846020015151841015610719577f677f502ec68c44ae7ddd81ccc39e600212abede2c98a041949f132f22b8e4e21846040518082815260200191505060405180910390a18460200151848151811015156106f257fe5b90602001906020020151925061070c8386600001516107f2565b838060010194505061069c565b8560c001516000806101000a81548163ffffffff021916908360030b63ffffffff1602179055505050505050505050565b6000600160008373ffffffffffffffffffffffffffffffffffffffff1673ffffffffffffffffffffffffffffffffffffffff16815260200190815260200160002060009054906101000a900460070b9050919050565b6107a8611d7a565b6107b0611d7a565b6107bd6020848551610c8b565b50905080915050919050565b6107d1611dc6565b6107d9611dc6565b6107e66020848551610f65565b50905080915050919050565b6000806000846040015192506000856000015160030b121515610a0a5761083984866000015163ffffffff1681518110151561082a57fe5b9060200190602002015161048f565b91506000600160008473ffffffffffffffffffffffffffffffffffffffff1673ffffffffffffffffffffffffffffffffffffffff16815260200190815260200160002060009054906101000a900460070b60070b141515610a095782600160008473ffffffffffffffffffffffffffffffffffffffff1673ffffffffffffffffffffffffffffffffffffffff16815260200190815260200160002060009054906101000a900460070b03600160008473ffffffffffffffffffffffffffffffffffffffff1673ffffffffffffffffffffffffffffffffffffffff16815260200190815260200160002060006101000a81548167ffffffffffffffff021916908360070b67ffffffffffffffff1602179055507f5b1f8b2cdcdb430bc7d8ba2272270311947a8b822b9bee7b284fcdf0243a07f682600160008573ffffffffffffffffffffffffffffffffffffffff1673ffffffffffffffffffffffffffffffffffffffff16815260200190815260200160002060009054906101000a900460070b604051808373ffffffffffffffffffffffffffffffffffffffff1673ffffffffffffffffffffffffffffffffffffffff1681526020018260070b60070b81526020019250505060405180910390a15b5b6000856020015160030b121515610c8457610a4584866020015163ffffffff16815181101515610a3657fe5b9060200190602002015161048f565b90506000600160008373ffffffffffffffffffffffffffffffffffffffff1673ffffffffffffffffffffffffffffffffffffffff16815260200190815260200160002060009054906101000a900460070b60070b141515610b5c5782600160008373ffffffffffffffffffffffffffffffffffffffff1673ffffffffffffffffffffffffffffffffffffffff16815260200190815260200160002060009054906101000a900460070b01600160008373ffffffffffffffffffffffffffffffffffffffff1673ffffffffffffffffffffffffffffffffffffffff16815260200190815260200160002060006101000a81548167ffffffffffffffff021916908360070b67ffffffffffffffff160217905550610bc6565b82600160008373ffffffffffffffffffffffffffffffffffffffff1673ffffffffffffffffffffffffffffffffffffffff16815260200190815260200160002060006101000a81548167ffffffffffffffff021916908360070b67ffffffffffffffff1602179055505b7f5b1f8b2cdcdb430bc7d8ba2272270311947a8b822b9bee7b284fcdf0243a07f681600160008473ffffffffffffffffffffffffffffffffffffffff1673ffffffffffffffffffffffffffffffffffffffff16815260200190815260200160002060009054906101000a900460070b604051808373ffffffffffffffffffffffffffffffffffffffff1673ffffffffffffffffffffffffffffffffffffffff1681526020018260070b60070b81526020019250505060405180910390a15b5050505050565b610c93611d7a565b6000610c9d611d7a565b610ca5611e0b565b6000806000808a90505b8881018b1015610de257610cc38b8b611147565b809450819550829650505050818b019a50600015610ce057610ddd565b6001841415610cfe57610cf58b8b8888611194565b8b019a50610ddc565b6002841415610d1c57610d138b8b888861122f565b8b019a50610ddb565b6003841415610d3a57610d318b8b88886112ca565b8b019a50610dda565b6004841415610d5857610d4f8b8b8888611365565b8b019a50610dd9565b6005841415610d7657610d6d8b8b8888611400565b8b019a50610dd8565b6006841415610d9457610d8b8b8b888861149b565b8b019a50610dd7565b6007841415610db257610da98b8b8888611536565b8b019a50610dd6565b6008841415610dd057610dc78b8b88886115d9565b8b019a50610dd5565b600080fd5b5b5b5b5b5b5b5b5b610caf565b809a505b8881018b1015610f5157610dfa8b8b611147565b809450819550829650505050818b019a50600015610e1757610f4c565b6001841415610e3c57610e338b8b610e2d61167c565b88611194565b8b019a50610f4b565b6002841415610e6157610e588b8b610e5261167c565b8861122f565b8b019a50610f4a565b6003841415610e8657610e7d8b8b610e7761167c565b886112ca565b8b019a50610f49565b6004841415610eab57610ea28b8b610e9c61167c565b88611365565b8b019a50610f48565b6005841415610ed057610ec78b8b610ec161167c565b88611400565b8b019a50610f47565b6006841415610ef557610eec8b8b610ee661167c565b8861149b565b8b019a50610f46565b6007841415610f1a57610f118b8b610f0b61167c565b88611536565b8b019a50610f45565b6008841415610f3f57610f368b8b610f3061167c565b886115d9565b8b019a50610f44565b600080fd5b5b5b5b5b5b5b5b5b610de6565b858997509750505050505050935093915050565b610f6d611dc6565b6000610f77611dc6565b610f7f611e2f565b6000806000808a90505b8881018b101561101057610f9d8b8b611147565b809450819550829650505050818b019a50600015610fba5761100b565b6001841415610fdf57610fd68b8b610fd061168b565b8861169a565b8b019a5061100a565b600284141561100457610ffb8b8b610ff561168b565b88611766565b8b019a50611009565b600080fd5b5b5b610f89565b809a5084600160038110151561102257fe5b602002015160405190808252806020026020018201604052801561105a57816020015b60608152602001906001900390816110455790505b50866000018190525084600260038110151561107257fe5b60200201516040519080825280602002602001820160405280156110b057816020015b61109d611e52565b8152602001906001900390816110955790505b5086602001819052505b8881018b1015611133576110ce8b8b611147565b809450819550829650505050818b019a506000156110eb5761112e565b6001841415611109576111008b8b888861169a565b8b019a5061112d565b60028414156111275761111e8b8b8888611766565b8b019a5061112c565b600080fd5b5b5b6110ba565b858997509750505050505050935093915050565b600080600080600080600061115c8989611838565b9350935060078416600581111561116f57fe5b915060088481151561117d57fe5b049050808284965096509650505050509250925092565b6000606060006111a48787611892565b915091506111b1856118ab565b156111db5760018460016009811015156111c757fe5b602002018181510191508181525050611222565b81856000018190525060008460016009811015156111f557fe5b6020020151111561122157600184600160098110151561121157fe5b6020020181815103915081815250505b5b8092505050949350505050565b60006060600061123f8787611892565b9150915061124c856118ab565b1561127657600184600260098110151561126257fe5b6020020181815101915081815250506112bd565b818560200181905250600084600260098110151561129057fe5b602002015111156112bc5760018460026009811015156112ac57fe5b6020020181815103915081815250505b5b8092505050949350505050565b6000606060006112da8787611892565b915091506112e7856118ab565b156113115760018460036009811015156112fd57fe5b602002018181510191508181525050611358565b818560400181905250600084600360098110151561132b57fe5b6020020151111561135757600184600360098110151561134757fe5b6020020181815103915081815250505b5b8092505050949350505050565b6000606060006113758787611892565b91509150611382856118ab565b156113ac57600184600460098110151561139857fe5b6020020181815101915081815250506113f3565b81856060018190525060008460046009811015156113c657fe5b602002015111156113f25760018460046009811015156113e257fe5b6020020181815103915081815250505b5b8092505050949350505050565b6000606060006114108787611892565b9150915061141d856118ab565b1561144757600184600560098110151561143357fe5b60200201818151019150818152505061148e565b818560800181905250600084600560098110151561146157fe5b6020020151111561148d57600184600560098110151561147d57fe5b6020020181815103915081815250505b5b8092505050949350505050565b6000606060006114ab8787611892565b915091506114b8856118ab565b156114e25760018460066009811015156114ce57fe5b602002018181510191508181525050611529565b818560a0018190525060008460066009811015156114fc57fe5b6020020151111561152857600184600660098110151561151857fe5b6020020181815103915081815250505b5b8092505050949350505050565b600080600061154587876118b6565b91509150611552856118ab565b1561157c57600184600760098110151561156857fe5b6020020181815101915081815250506115cc565b818560c0019060030b908160030b81525050600084600760098110151561159f57fe5b602002015111156115cb5760018460076009811015156115bb57fe5b6020020181815103915081815250505b5b8092505050949350505050565b60008060006115e887876118df565b915091506115f5856118ab565b1561161f57600184600860098110151561160b57fe5b60200201818151019150818152505061166f565b818560e0019060070b908160070b81525050600084600860098110151561164257fe5b6020020151111561166e57600184600860098110151561165e57fe5b6020020181815103915081815250505b5b8092505050949350505050565b611684611d7a565b6000905090565b611693611dc6565b6000905090565b6000606060006116aa8787611892565b915091506116b78561190e565b156116e15760018460016003811015156116cd57fe5b602002018181510191508181525050611759565b8185600001518560016003811015156116f657fe5b60200201518760000151510381518110151561170e57fe5b90602001906020020181905250600084600160038110151561172c57fe5b6020020151111561175857600184600160038110151561174857fe5b6020020181815103915081815250505b5b8092505050949350505050565b6000611770611de0565b600061177c8787611919565b915091506117898561190e565b156117b357600184600260038110151561179f57fe5b60200201818151019150818152505061182b565b8185602001518560026003811015156117c857fe5b6020020151876020015151038151811015156117e057fe5b9060200190602002018190525060008460026003811015156117fe57fe5b6020020151111561182a57600184600260038110151561181a57fe5b6020020181815103915081815250505b5b8092505050949350505050565b6000806000806000915060009050608086860196505b608081166080141561188257865160001a90508160070260020a81607f16028317925060018201915060018701965061184e565b5081819350935050509250929050565b606060006118a08484611961565b915091509250929050565b600081159050919050565b60008060008060006118c88787611838565b925092508290508082945094505050509250929050565b60008060008060006118f18787611838565b9250925082905080828160030b9150945094505050509250929050565b600081159050919050565b611921611de0565b600080600061192e611de0565b6119388787611838565b92509250818701965061194c8787856119f6565b50905080828401945094505050509250929050565b6060600080600060606119748787611838565b92509250826040519080825280601f01601f1916602001820160405280156119ab5781602001602082028038833980820191505090505b509050602081016000838989010198505b848110156119e257885160001a82536001890198506001820191506001810190506119bc565b505080838301945094505050509250929050565b6119fe611de0565b6000611a08611de0565b611a10611e7d565b6000806000808a90505b8881018b1015611ab257611a2e8b8b611147565b809450819550829650505050818b019a50600015611a4b57611aad565b6001841415611a6957611a608b8b8888611b77565b8b019a50611aac565b6002841415611a8757611a7e8b8b8888611c1a565b8b019a50611aab565b6003841415611aa557611a9c8b8b8888611cbd565b8b019a50611aaa565b600080fd5b5b5b5b611a1a565b809a505b8881018b1015611b6357611aca8b8b611147565b809450819550829650505050818b019a50600015611ae757611b5e565b6001841415611b0c57611b038b8b611afd611d60565b88611b77565b8b019a50611b5d565b6002841415611b3157611b288b8b611b22611d60565b88611c1a565b8b019a50611b5c565b6003841415611b5657611b4d8b8b611b47611d60565b88611cbd565b8b019a50611b5b565b600080fd5b5b5b5b611ab6565b858997509750505050505050935093915050565b6000806000611b8687876118b6565b91509150611b9385611d6f565b15611bbd576001846001600481101515611ba957fe5b602002018181510191508181525050611c0d565b81856000019060030b908160030b815250506000846001600481101515611be057fe5b60200201511115611c0c576001846001600481101515611bfc57fe5b6020020181815103915081815250505b5b8092505050949350505050565b6000806000611c2987876118b6565b91509150611c3685611d6f565b15611c60576001846002600481101515611c4c57fe5b602002018181510191508181525050611cb0565b81856020019060030b908160030b815250506000846002600481101515611c8357fe5b60200201511115611caf576001846002600481101515611c9f57fe5b6020020181815103915081815250505b5b8092505050949350505050565b6000806000611ccc87876118df565b91509150611cd985611d6f565b15611d03576001846003600481101515611cef57fe5b602002018181510191508181525050611d53565b81856040019060070b908160070b815250506000846003600481101515611d2657fe5b60200201511115611d52576001846003600481101515611d4257fe5b6020020181815103915081815250505b5b8092505050949350505050565b611d68611de0565b6000905090565b600081159050919050565b61010060405190810160405280606081526020016060815260200160608152602001606081526020016060815260200160608152602001600060030b8152602001600060070b81525090565b604080519081016040528060608152602001606081525090565b606060405190810160405280600060030b8152602001600060030b8152602001600060070b81525090565b61012060405190810160405280600990602082028038833980820191505090505090565b606060405190810160405280600390602082028038833980820191505090505090565b606060405190810160405280600060030b8152602001600060030b8152602001600060070b81525090565b6080604051908101604052806004906020820280388339808201915050905050905600a165627a7a72305820071f520f71a3ddc38d65dd423ad4efe8f214f8c6b269cb8b0a2dc49db39400c90029",
  "source": "pragma solidity ^0.4.0;\n\nimport './rollup_pb.sol';\n\ncontract Rollups {\n    using pb_Rollup for pb_Rollup.Data;\n\n    int32 topHeight;\n    mapping(address => int64) balances;\n    address[] public committee ;\n\n    event BalanceChanged(address owner, int64 balance);\n    event Transaction(uint256 tranIndex);\n    event Received(uint256 blockCount);\n    event TopHeightUpdate(int32 eight);\n\n    constructor(address[] c) public {\n        committee = c;\n    }\n\n    modifier withCommittee() {\n        bool allowed = false;\n        for (uint i = 0; i < committee.length; i++) {\n            if (committee[i] == msg.sender) {\n                allowed = true;\n            }\n        }\n        require(\n            allowed,\n            \"Sender not authorized.\"\n        );\n        _;\n    }\n\n    function getTopHeight() public withCommittee view returns (int32) {\n        return topHeight;\n    }\n\n    function addBlock(bytes header, bytes rollup) public withCommittee {\n        pb_BlockHeader.Data memory h = pb_BlockHeader.decode(header);\n        pb_Rollup.Data memory r = pb_Rollup.decode(rollup);\n        emit TopHeightUpdate(int32(r.transactions[0].value));\n\n        for (uint i = 0; i < r.transactions.length; i++) {\n            emit Transaction(i);\n            pb_Transaction.Data memory tran = r.transactions[i];\n\n            applyTransaction(tran, r.accounts);\n        }\n\n        topHeight = h.height;\n    }\n\n    function getBalance(address owner) public returns (int64) {\n        return balances[owner];\n    }\n\n    function applyTransaction(pb_Transaction.Data memory tran, bytes[] memory accounts) private {\n        int64 value = tran.value;\n        if (tran.from >= 0) {\n            address from = bytesToAddress(accounts[uint32(tran.from)]);\n            if(balances[from] != 0) {\n                balances[from] = balances[from] - value;\n                emit BalanceChanged(from, balances[from]);\n            }\n        }\n\n        if (tran.to >= 0) {\n            address to = bytesToAddress(accounts[uint32(tran.to)]);\n            if(balances[to] != 0) {\n                balances[to] = balances[to] + value;\n            } else {\n                balances[to] = value;\n            }\n            emit BalanceChanged(to, balances[to]);\n        }\n    }\n\n    function tb20(bytes memory _b) public pure returns (bytes20 _result) {\n        assembly {\n            _result := mload(add(_b, 0x20))\n        }\n    }\n\n    function bytesToAddress(bytes memory _b) public returns (address) {\n        return address(tb20(_b));\n    }\n}\n",
  "sourcePath": "/Users/dabasov/Projects/rollups-contract/contracts/Rollups.sol",
  "compiler": {
    "name": "solc",
    "version": "0.4.26+commit.4563c3fc.Emscripten.clang"
  },
  "schemaVersion": "3.2.0",
  "updatedAt": "2020-06-01T22:40:53.968Z",
  "networkType": "ethereum",
  "devdoc": {
    "methods": {}
  },
  "userdoc": {
    "methods": {}
  }
}