{
  "contractName": "Rollups",
  "abi": [
    {
      "constant": true,
      "inputs": [
        {
          "name": "",
          "type": "uint256"
        }
      ],
      "name": "committee",
      "outputs": [
        {
          "name": "",
          "type": "address"
        }
      ],
      "payable": false,
      "stateMutability": "view",
      "type": "function"
    },
    {
      "inputs": [
        {
          "name": "c",
          "type": "address[]"
        }
      ],
      "payable": false,
      "stateMutability": "nonpayable",
      "type": "constructor"
    },
    {
      "anonymous": false,
      "inputs": [
        {
          "indexed": false,
          "name": "owner",
          "type": "address"
        },
        {
          "indexed": false,
          "name": "balance",
          "type": "int64"
        }
      ],
      "name": "BalanceChanged",
      "type": "event"
    },
    {
      "anonymous": false,
      "inputs": [
        {
          "indexed": false,
          "name": "tranIndex",
          "type": "uint256"
        }
      ],
      "name": "Transaction",
      "type": "event"
    },
    {
      "anonymous": false,
      "inputs": [
        {
          "indexed": false,
          "name": "blockCount",
          "type": "uint256"
        }
      ],
      "name": "Received",
      "type": "event"
    },
    {
      "anonymous": false,
      "inputs": [
        {
          "indexed": false,
          "name": "eight",
          "type": "int32"
        }
      ],
      "name": "TopHeightUpdate",
      "type": "event"
    },
    {
      "constant": true,
      "inputs": [],
      "name": "getTopHeight",
      "outputs": [
        {
          "name": "",
          "type": "int32"
        }
      ],
      "payable": false,
      "stateMutability": "view",
      "type": "function"
    },
    {
      "constant": false,
      "inputs": [
        {
          "name": "header",
          "type": "bytes"
        },
        {
          "name": "rollup",
          "type": "bytes"
        }
      ],
      "name": "addBlock",
      "outputs": [],
      "payable": false,
      "stateMutability": "nonpayable",
      "type": "function"
    },
    {
      "constant": true,
      "inputs": [
        {
          "name": "owner",
          "type": "address"
        }
      ],
      "name": "getBalance",
      "outputs": [
        {
          "name": "",
          "type": "int64"
        }
      ],
      "payable": false,
      "stateMutability": "view",
      "type": "function"
    },
    {
      "constant": true,
      "inputs": [
        {
          "name": "_b",
          "type": "bytes"
        }
      ],
      "name": "tb20",
      "outputs": [
        {
          "name": "_result",
          "type": "bytes20"
        }
      ],
      "payable": false,
      "stateMutability": "pure",
      "type": "function"
    },
    {
      "constant": false,
      "inputs": [
        {
          "name": "_b",
          "type": "bytes"
        }
      ],
      "name": "bytesToAddress",
      "outputs": [
        {
          "name": "",
          "type": "address"
        }
      ],
      "payable": false,
      "stateMutability": "nonpayable",
      "type": "function"
    }
  ],
  "bytecode": "0x60806040523480156200001157600080fd5b5060405162001f9d38038062001f9d8339810180604052810190808051820192919050505080600290805190602001906200004e92919062000056565b50506200012b565b828054828255906000526020600020908101928215620000d2579160200282015b82811115620000d15782518260006101000a81548173ffffffffffffffffffffffffffffffffffffffff021916908373ffffffffffffffffffffffffffffffffffffffff1602179055509160200191906001019062000077565b5b509050620000e19190620000e5565b5090565b6200012891905b808211156200012457600081816101000a81549073ffffffffffffffffffffffffffffffffffffffff021916905550600101620000ec565b5090565b90565b611e62806200013b6000396000f300608060405260043610610078576000357c0100000000000000000000000000000000000000000000000000000000900463ffffffff168063221068ae1461007d57806342526e4e146100ae578063afe7fcf414610157578063b43dd9c8146101c4578063f358de121461025f578063f8b2cb4f1461030e575b600080fd5b34801561008957600080fd5b5061009261036b565b604051808260030b60030b815260200191505060405180910390f35b3480156100ba57600080fd5b50610115600480360381019080803590602001908201803590602001908080601f0160208091040260200160405190810160405280939291908181526020018383808284378201915050505050509192919290505050610381565b604051808273ffffffffffffffffffffffffffffffffffffffff1673ffffffffffffffffffffffffffffffffffffffff16815260200191505060405180910390f35b34801561016357600080fd5b50610182600480360381019080803590602001909291905050506103a3565b604051808273ffffffffffffffffffffffffffffffffffffffff1673ffffffffffffffffffffffffffffffffffffffff16815260200191505060405180910390f35b3480156101d057600080fd5b5061022b600480360381019080803590602001908201803590602001908080601f01602080910402602001604051908101604052809392919081815260200183838082843782019150505050505091929192905050506103e1565b60405180826bffffffffffffffffffffffff19166bffffffffffffffffffffffff1916815260200191505060405180910390f35b34801561026b57600080fd5b5061030c600480360381019080803590602001908201803590602001908080601f0160208091040260200160405190810160405280939291908181526020018383808284378201915050505050509192919290803590602001908201803590602001908080601f01602080910402602001604051908101604052809392919081815260200183838082843782019150505050505091929192905050506103ef565b005b34801561031a57600080fd5b5061034f600480360381019080803573ffffffffffffffffffffffffffffffffffffffff1690602001909291905050506106e0565b604051808260070b60070b815260200191505060405180910390f35b60008060009054906101000a900460030b905090565b600061038c826103e1565b6c0100000000000000000000000090049050919050565b6002818154811015156103b257fe5b906000526020600020016000915054906101000a900473ffffffffffffffffffffffffffffffffffffffff1681565b600060208201519050919050565b6103f7611d10565b6103ff611d5c565b6000610409611d76565b60008060009150600090505b6002805490508110156104a1573373ffffffffffffffffffffffffffffffffffffffff1660028281548110151561044857fe5b9060005260206000200160009054906101000a900473ffffffffffffffffffffffffffffffffffffffff1673ffffffffffffffffffffffffffffffffffffffff16141561049457600191505b8080600101915050610415565b811515610516576040517f08c379a00000000000000000000000000000000000000000000000000000000081526004018080602001828103825260158152602001807f53656e646572206e6f7420617574686f72697a6564000000000000000000000081525060200191505060405180910390fd5b61051f88610736565b95506000809054906101000a900460030b60030b8660c0015160030b1315156105d6576040517f08c379a00000000000000000000000000000000000000000000000000000000081526004018080602001828103825260238152602001807f526563656976656420686561646572206c6f776572207468616e20657870656381526020017f746564000000000000000000000000000000000000000000000000000000000081525060400191505060405180910390fd5b60008751111561066e576105e98761075f565b9450600093505b84602001515184101561066d577f677f502ec68c44ae7ddd81ccc39e600212abede2c98a041949f132f22b8e4e21846040518082815260200191505060405180910390a184602001518481518110151561064657fe5b906020019060200201519250610660838660000151610788565b83806001019450506105f0565b5b7fa55a668cee7266e37bcda46dd9cc53ecf7f5cfffd94fdcce5272ce40c6e9b37f8660c00151604051808260030b60030b815260200191505060405180910390a18560c001516000806101000a81548163ffffffff021916908360030b63ffffffff1602179055505050505050505050565b6000600160008373ffffffffffffffffffffffffffffffffffffffff1673ffffffffffffffffffffffffffffffffffffffff16815260200190815260200160002060009054906101000a900460070b9050919050565b61073e611d10565b610746611d10565b6107536020848551610c21565b50905080915050919050565b610767611d5c565b61076f611d5c565b61077c6020848551610efb565b50905080915050919050565b6000806000846040015192506000856000015160030b1215156109a0576107cf84866000015163ffffffff168151811015156107c057fe5b90602001906020020151610381565b91506000600160008473ffffffffffffffffffffffffffffffffffffffff1673ffffffffffffffffffffffffffffffffffffffff16815260200190815260200160002060009054906101000a900460070b60070b14151561099f5782600160008473ffffffffffffffffffffffffffffffffffffffff1673ffffffffffffffffffffffffffffffffffffffff16815260200190815260200160002060009054906101000a900460070b03600160008473ffffffffffffffffffffffffffffffffffffffff1673ffffffffffffffffffffffffffffffffffffffff16815260200190815260200160002060006101000a81548167ffffffffffffffff021916908360070b67ffffffffffffffff1602179055507f5b1f8b2cdcdb430bc7d8ba2272270311947a8b822b9bee7b284fcdf0243a07f682600160008573ffffffffffffffffffffffffffffffffffffffff1673ffffffffffffffffffffffffffffffffffffffff16815260200190815260200160002060009054906101000a900460070b604051808373ffffffffffffffffffffffffffffffffffffffff1673ffffffffffffffffffffffffffffffffffffffff1681526020018260070b60070b81526020019250505060405180910390a15b5b6000856020015160030b121515610c1a576109db84866020015163ffffffff168151811015156109cc57fe5b90602001906020020151610381565b90506000600160008373ffffffffffffffffffffffffffffffffffffffff1673ffffffffffffffffffffffffffffffffffffffff16815260200190815260200160002060009054906101000a900460070b60070b141515610af25782600160008373ffffffffffffffffffffffffffffffffffffffff1673ffffffffffffffffffffffffffffffffffffffff16815260200190815260200160002060009054906101000a900460070b01600160008373ffffffffffffffffffffffffffffffffffffffff1673ffffffffffffffffffffffffffffffffffffffff16815260200190815260200160002060006101000a81548167ffffffffffffffff021916908360070b67ffffffffffffffff160217905550610b5c565b82600160008373ffffffffffffffffffffffffffffffffffffffff1673ffffffffffffffffffffffffffffffffffffffff16815260200190815260200160002060006101000a81548167ffffffffffffffff021916908360070b67ffffffffffffffff1602179055505b7f5b1f8b2cdcdb430bc7d8ba2272270311947a8b822b9bee7b284fcdf0243a07f681600160008473ffffffffffffffffffffffffffffffffffffffff1673ffffffffffffffffffffffffffffffffffffffff16815260200190815260200160002060009054906101000a900460070b604051808373ffffffffffffffffffffffffffffffffffffffff1673ffffffffffffffffffffffffffffffffffffffff1681526020018260070b60070b81526020019250505060405180910390a15b5050505050565b610c29611d10565b6000610c33611d10565b610c3b611da1565b6000806000808a90505b8881018b1015610d7857610c598b8b6110dd565b809450819550829650505050818b019a50600015610c7657610d73565b6001841415610c9457610c8b8b8b888861112a565b8b019a50610d72565b6002841415610cb257610ca98b8b88886111c5565b8b019a50610d71565b6003841415610cd057610cc78b8b8888611260565b8b019a50610d70565b6004841415610cee57610ce58b8b88886112fb565b8b019a50610d6f565b6005841415610d0c57610d038b8b8888611396565b8b019a50610d6e565b6006841415610d2a57610d218b8b8888611431565b8b019a50610d6d565b6007841415610d4857610d3f8b8b88886114cc565b8b019a50610d6c565b6008841415610d6657610d5d8b8b888861156f565b8b019a50610d6b565b600080fd5b5b5b5b5b5b5b5b5b610c45565b809a505b8881018b1015610ee757610d908b8b6110dd565b809450819550829650505050818b019a50600015610dad57610ee2565b6001841415610dd257610dc98b8b610dc3611612565b8861112a565b8b019a50610ee1565b6002841415610df757610dee8b8b610de8611612565b886111c5565b8b019a50610ee0565b6003841415610e1c57610e138b8b610e0d611612565b88611260565b8b019a50610edf565b6004841415610e4157610e388b8b610e32611612565b886112fb565b8b019a50610ede565b6005841415610e6657610e5d8b8b610e57611612565b88611396565b8b019a50610edd565b6006841415610e8b57610e828b8b610e7c611612565b88611431565b8b019a50610edc565b6007841415610eb057610ea78b8b610ea1611612565b886114cc565b8b019a50610edb565b6008841415610ed557610ecc8b8b610ec6611612565b8861156f565b8b019a50610eda565b600080fd5b5b5b5b5b5b5b5b5b610d7c565b858997509750505050505050935093915050565b610f03611d5c565b6000610f0d611d5c565b610f15611dc5565b6000806000808a90505b8881018b1015610fa657610f338b8b6110dd565b809450819550829650505050818b019a50600015610f5057610fa1565b6001841415610f7557610f6c8b8b610f66611621565b88611630565b8b019a50610fa0565b6002841415610f9a57610f918b8b610f8b611621565b886116fc565b8b019a50610f9f565b600080fd5b5b5b610f1f565b809a50846001600381101515610fb857fe5b6020020151604051908082528060200260200182016040528015610ff057816020015b6060815260200190600190039081610fdb5790505b50866000018190525084600260038110151561100857fe5b602002015160405190808252806020026020018201604052801561104657816020015b611033611de8565b81526020019060019003908161102b5790505b5086602001819052505b8881018b10156110c9576110648b8b6110dd565b809450819550829650505050818b019a50600015611081576110c4565b600184141561109f576110968b8b8888611630565b8b019a506110c3565b60028414156110bd576110b48b8b88886116fc565b8b019a506110c2565b600080fd5b5b5b611050565b858997509750505050505050935093915050565b60008060008060008060006110f289896117ce565b9350935060078416600581111561110557fe5b915060088481151561111357fe5b049050808284965096509650505050509250925092565b60006060600061113a8787611828565b9150915061114785611841565b1561117157600184600160098110151561115d57fe5b6020020181815101915081815250506111b8565b818560000181905250600084600160098110151561118b57fe5b602002015111156111b75760018460016009811015156111a757fe5b6020020181815103915081815250505b5b8092505050949350505050565b6000606060006111d58787611828565b915091506111e285611841565b1561120c5760018460026009811015156111f857fe5b602002018181510191508181525050611253565b818560200181905250600084600260098110151561122657fe5b6020020151111561125257600184600260098110151561124257fe5b6020020181815103915081815250505b5b8092505050949350505050565b6000606060006112708787611828565b9150915061127d85611841565b156112a757600184600360098110151561129357fe5b6020020181815101915081815250506112ee565b81856040018190525060008460036009811015156112c157fe5b602002015111156112ed5760018460036009811015156112dd57fe5b6020020181815103915081815250505b5b8092505050949350505050565b60006060600061130b8787611828565b9150915061131885611841565b1561134257600184600460098110151561132e57fe5b602002018181510191508181525050611389565b818560600181905250600084600460098110151561135c57fe5b6020020151111561138857600184600460098110151561137857fe5b6020020181815103915081815250505b5b8092505050949350505050565b6000606060006113a68787611828565b915091506113b385611841565b156113dd5760018460056009811015156113c957fe5b602002018181510191508181525050611424565b81856080018190525060008460056009811015156113f757fe5b6020020151111561142357600184600560098110151561141357fe5b6020020181815103915081815250505b5b8092505050949350505050565b6000606060006114418787611828565b9150915061144e85611841565b1561147857600184600660098110151561146457fe5b6020020181815101915081815250506114bf565b818560a00181905250600084600660098110151561149257fe5b602002015111156114be5760018460066009811015156114ae57fe5b6020020181815103915081815250505b5b8092505050949350505050565b60008060006114db878761184c565b915091506114e885611841565b156115125760018460076009811015156114fe57fe5b602002018181510191508181525050611562565b818560c0019060030b908160030b81525050600084600760098110151561153557fe5b6020020151111561156157600184600760098110151561155157fe5b6020020181815103915081815250505b5b8092505050949350505050565b600080600061157e8787611875565b9150915061158b85611841565b156115b55760018460086009811015156115a157fe5b602002018181510191508181525050611605565b818560e0019060070b908160070b8152505060008460086009811015156115d857fe5b602002015111156116045760018460086009811015156115f457fe5b6020020181815103915081815250505b5b8092505050949350505050565b61161a611d10565b6000905090565b611629611d5c565b6000905090565b6000606060006116408787611828565b9150915061164d856118a4565b1561167757600184600160038110151561166357fe5b6020020181815101915081815250506116ef565b81856000015185600160038110151561168c57fe5b6020020151876000015151038151811015156116a457fe5b9060200190602002018190525060008460016003811015156116c257fe5b602002015111156116ee5760018460016003811015156116de57fe5b6020020181815103915081815250505b5b8092505050949350505050565b6000611706611d76565b600061171287876118af565b9150915061171f856118a4565b1561174957600184600260038110151561173557fe5b6020020181815101915081815250506117c1565b81856020015185600260038110151561175e57fe5b60200201518760200151510381518110151561177657fe5b90602001906020020181905250600084600260038110151561179457fe5b602002015111156117c05760018460026003811015156117b057fe5b6020020181815103915081815250505b5b8092505050949350505050565b6000806000806000915060009050608086860196505b608081166080141561181857865160001a90508160070260020a81607f1602831792506001820191506001870196506117e4565b5081819350935050509250929050565b6060600061183684846118f7565b915091509250929050565b600081159050919050565b600080600080600061185e87876117ce565b925092508290508082945094505050509250929050565b600080600080600061188787876117ce565b9250925082905080828160030b9150945094505050509250929050565b600081159050919050565b6118b7611d76565b60008060006118c4611d76565b6118ce87876117ce565b9250925081870196506118e287878561198c565b50905080828401945094505050509250929050565b60606000806000606061190a87876117ce565b92509250826040519080825280601f01601f1916602001820160405280156119415781602001602082028038833980820191505090505b509050602081016000838989010198505b8481101561197857885160001a8253600189019850600182019150600181019050611952565b505080838301945094505050509250929050565b611994611d76565b600061199e611d76565b6119a6611e13565b6000806000808a90505b8881018b1015611a48576119c48b8b6110dd565b809450819550829650505050818b019a506000156119e157611a43565b60018414156119ff576119f68b8b8888611b0d565b8b019a50611a42565b6002841415611a1d57611a148b8b8888611bb0565b8b019a50611a41565b6003841415611a3b57611a328b8b8888611c53565b8b019a50611a40565b600080fd5b5b5b5b6119b0565b809a505b8881018b1015611af957611a608b8b6110dd565b809450819550829650505050818b019a50600015611a7d57611af4565b6001841415611aa257611a998b8b611a93611cf6565b88611b0d565b8b019a50611af3565b6002841415611ac757611abe8b8b611ab8611cf6565b88611bb0565b8b019a50611af2565b6003841415611aec57611ae38b8b611add611cf6565b88611c53565b8b019a50611af1565b600080fd5b5b5b5b611a4c565b858997509750505050505050935093915050565b6000806000611b1c878761184c565b91509150611b2985611d05565b15611b53576001846001600481101515611b3f57fe5b602002018181510191508181525050611ba3565b81856000019060030b908160030b815250506000846001600481101515611b7657fe5b60200201511115611ba2576001846001600481101515611b9257fe5b6020020181815103915081815250505b5b8092505050949350505050565b6000806000611bbf878761184c565b91509150611bcc85611d05565b15611bf6576001846002600481101515611be257fe5b602002018181510191508181525050611c46565b81856020019060030b908160030b815250506000846002600481101515611c1957fe5b60200201511115611c45576001846002600481101515611c3557fe5b6020020181815103915081815250505b5b8092505050949350505050565b6000806000611c628787611875565b91509150611c6f85611d05565b15611c99576001846003600481101515611c8557fe5b602002018181510191508181525050611ce9565b81856040019060070b908160070b815250506000846003600481101515611cbc57fe5b60200201511115611ce8576001846003600481101515611cd857fe5b6020020181815103915081815250505b5b8092505050949350505050565b611cfe611d76565b6000905090565b600081159050919050565b61010060405190810160405280606081526020016060815260200160608152602001606081526020016060815260200160608152602001600060030b8152602001600060070b81525090565b604080519081016040528060608152602001606081525090565b606060405190810160405280600060030b8152602001600060030b8152602001600060070b81525090565b61012060405190810160405280600990602082028038833980820191505090505090565b606060405190810160405280600390602082028038833980820191505090505090565b606060405190810160405280600060030b8152602001600060030b8152602001600060070b81525090565b6080604051908101604052806004906020820280388339808201915050905050905600a165627a7a72305820d6ba31034c7ae7e3eda74354e4c0e4a524bbec4b6df769358eb960881c8368ed0029",
  "source": "pragma solidity ^0.4.0;\n\nimport './rollup_pb.sol';\n\ncontract Rollups {\n    using pb_Rollup for pb_Rollup.Data;\n\n    int32 topHeight;\n    mapping(address => int64) balances;\n    address[] public committee ;\n\n    event BalanceChanged(address owner, int64 balance);\n    event Transaction(uint256 tranIndex);\n    event Received(uint256 blockCount);\n    event TopHeightUpdate(int32 eight);\n\n    constructor(address[] c) public {\n        committee = c;\n    }\n\n    modifier withCommittee() {\n        bool allowed = false;\n        for (uint i = 0; i < committee.length; i++) {\n            if (committee[i] == msg.sender) {\n                allowed = true;\n            }\n        }\n        require(\n            allowed,\n            \"Sender not authorized\"\n        );\n        _;\n    }\n\n    function getTopHeight() public view returns (int32) {\n        return topHeight;\n    }\n\n    function addBlock(bytes header, bytes rollup) public withCommittee {\n        pb_BlockHeader.Data memory h = pb_BlockHeader.decode(header);\n\n        require(\n            h.height > topHeight,\n            \"Received header lower than expected\"\n        );\n\n        if (rollup.length > 0) {\n            pb_Rollup.Data memory r = pb_Rollup.decode(rollup);\n\n            for (uint i = 0; i < r.transactions.length; i++) {\n                emit Transaction(i);\n                pb_Transaction.Data memory tran = r.transactions[i];\n\n                applyTransaction(tran, r.accounts);\n            }\n        }\n\n        emit TopHeightUpdate(h.height);\n        topHeight = h.height;\n    }\n\n    function getBalance(address owner) public view returns (int64) {\n        return balances[owner];\n    }\n\n    function applyTransaction(pb_Transaction.Data memory tran, bytes[] memory accounts) private {\n        int64 value = tran.value;\n        if (tran.from >= 0) {\n            address from = bytesToAddress(accounts[uint32(tran.from)]);\n            if(balances[from] != 0) {\n                balances[from] = balances[from] - value;\n                emit BalanceChanged(from, balances[from]);\n            }\n        }\n\n        if (tran.to >= 0) {\n            address to = bytesToAddress(accounts[uint32(tran.to)]);\n            if(balances[to] != 0) {\n                balances[to] = balances[to] + value;\n            } else {\n                balances[to] = value;\n            }\n            emit BalanceChanged(to, balances[to]);\n        }\n    }\n\n    function tb20(bytes memory _b) public pure returns (bytes20 _result) {\n        assembly {\n            _result := mload(add(_b, 0x20))\n        }\n    }\n\n    function bytesToAddress(bytes memory _b) public returns (address) {\n        return address(tb20(_b));\n    }\n}\n",
  "sourcePath": "/Users/dabasov/Projects/rollups-contract/contracts/Rollups.sol",
  "compiler": {
    "name": "solc",
    "version": "0.4.26+commit.4563c3fc.Emscripten.clang"
  },
  "schemaVersion": "3.2.0",
  "updatedAt": "2020-06-19T16:43:39.881Z",
  "networkType": "ethereum",
  "devdoc": {
    "methods": {}
  },
  "userdoc": {
    "methods": {}
  }
}